:0400000033EF00F0EA
:100008005C82FACF02F0FBCF03F0F2AA0EEF00F009
:1000180010EF00F019EF00F0F2A415EF00F017EF61
:1000280000F019EF00F076EC0CF0A1A61EEF00F03E
:1000380020EF00F023EF00F03F0EC616A1969EA613
:1000480028EF00F02AEF00F02DEF00F0010E5B6EB4
:100058009E9603C0FBFF02C0FAFF5C92110054EFAA
:100068000BF0000E51EC0CF0546E54B03EEF00F063
:1000780040EF00F046EF00F0F20E396E3F0E3A6E98
:100088004AEF00F0EF0E396E3F0E3A6E54B24FEF62
:1000980000F051EF00F057EF00F0DE0E3B6E3F0E20
:1000A8003C6E5BEF00F0E90E3B6E3F0E3C6E690E56
:1000B800106E3C0E116E000E136E000E126E54C0C0
:1000C80014F0156A54C032F0323A0F0E321632501C
:1000D800166E176A54C033F0D8903332D890333242
:1000E800030E33163350186E196A3BC01AF03CC021
:1000F8001BF039C01CF03AC01DF035EC05F0010EBC
:1001080051EC0CF0546E8E0E106E3E0E116E000EF9
:10011800136E010E126E54C014F0156A35EC05F01A
:10012800000E526E050E5218D8B49DEF00F09FEFE6
:1001380000F0A5EF00F0D00E3D6E3F0E3E6EA9EF29
:1001480000F03A0E3D6E3F0E3E6E52C032F0010E88
:10015800336E322AB2EF00F0D8903336322EB0EF39
:1001680000F0335054140009D8A4BDEF00F0BFEFDD
:1001780000F0C5EF00F0FA0E3F6E3F0E406EC9EF7B
:1001880000F0F80E3F6E3F0E406E850E106E3F0E6B
:10019800116E52C012F0136A3FC014F040C015F03F
:1001A8003DC016F03EC017F035EC05F0522A050E9A
:1001B8005264E1EF00F0E3EF00F096EF00F0020E7A
:1001C80051EC0CF0546E850E106E3D0E116E000E43
:1001D800136E020E126E54C014F0156A35EC05F059
:1001E800000E526E050E5218D8B4FDEF00F0FFEF66
:1001F80000F005EF01F0D00E416E3F0E426E09EFA0
:1002080001F03A0E416E3F0E426E52C032F0010EBE
:10021800336E322A12EF01F0D8903336322E10EFB7
:1002280001F0335054140009D8A41DEF01F01FEF5A
:1002380001F025EF01F0FA0E436E3F0E446E29EFF0
:1002480001F0F80E436E3F0E446E850E106E3F0EA1
:10025800116E52C012F0136A43C014F044C015F076
:1002680041C016F042C017F035EC05F0522A050ED1
:10027800526441EF01F043EF01F0F6EF00F0030E96
:1002880051EC0CF0546E5450030B020F536E330EA6
:10029800106E3C0E116E000E136E030E126E54C0DB
:1002A80014F0156A54C032F0030E32163250166E2E
:1002B800176A53C018F0196A35EC05F0040E51ECB2
:1002C8000CF0546EF70E106E3B0E116E000E136E8E
:1002D800040E126E54C014F0156A54C032F0323A4B
:1002E8000F0E32163250166E176A54C033F00F0EC6
:1002F80033163350186E196A54C034F0343A0F0E5E
:1003080034163450FA0DF3CF35F0F4CF36F0FA0E38
:1003180035241A6E000E36201B6E54C037F00F0EAF
:10032800371637501C6E1D6A35EC05F0050E51EC7A
:100338000CF0546E690E106E3D0E116E000E136EA9
:10034800050E126E54C014F0156A600E5424166E11
:10035800176A090E172235EC05F0060E51EC0CF061
:10036800546E54BEBAEF01F0BCEF01F0C2EF01F0D9
:10037800DE0E456E3F0E466EC6EF01F0E90E456E85
:100388003F0E466E54BECBEF01F0CDEF01F0D3EF38
:1003980001F0DE0E476E3F0E486ED7EF01F0E90E12
:1003A800476E3F0E486E9E0E106E3C0E116E000E8C
:1003B800136E060E126E54C014F0156A47C016F07C
:1003C80048C017F045C018F046C019F035EC05F0E4
:1003D8000EEF02F0A80E106E3F0E116E35EC05F010
:1003E8002AEF02F0AF0E106E3F0E116E35EC05F0DD
:1003F8002AEF02F0900E106E3F0E116E35EC05F0EC
:100408002AEF02F0C80E106E3F0E116E35EC05F0A3
:100418002AEF02F05438E8461F0B050B326E336A98
:100428003350000AD8B41BEF02F006EF02F0325046
:10043800000AD8B4EEEF01F0010AD8B4F6EF01F0E3
:10044800050AD8B4FEEF01F006EF02F0990E106E1F
:100458003F0E116E35EC05F05AEF02F0D60E106E15
:100468003F0E116E35EC05F079EF02F0D20E106EEA
:100478003F0E116E35EC05F079EF02F0E60E106EC6
:100488003F0E116E35EC05F079EF02F0FC0E106EA0
:100498003F0E116E35EC05F079EF02F0DA0E106EB2
:1004A8003F0E116E35EC05F079EF02F0D89054301C
:1004B800030B326E336A3350000AD8B466EF02F089
:1004C80052EF02F03250000AD8B432EF02F0010ABB
:1004D800D8B43AEF02F0030AD8B442EF02F0010AA6
:1004E800D8B44AEF02F052EF02F0C20E106E3F0E7F
:1004F800116E35EC05F0070E51EC0CF0546E54B04B
:1005080088EF02F08AEF02F090EF02F0EC0E496EED
:100518003F0E4A6E94EF02F0E20E496E3F0E4A6EAD
:10052800D10E106E3C0E116E000E136E070E126E79
:1005380054C014F0156A54C032F0323A0F0E321615
:10054800070E32163250166E176A54C033F0D89020
:100558003332070E33163350186E196A49C01AF031
:100568004AC01BF035EC05F0080E51EC0CF0546E47
:10057800020E106E3D0E116E000E136E080E126EF6
:1005880054C014F0156A54C032F0323A0F0E3216C5
:100598003250166E176A54C033F00F0E33163350AC
:1005A800186E196A35EC05F0090E51EC0CF0546E12
:1005B80054B0E1EF02F0E3EF02F0E9EF02F0EC0EE5
:1005C8004B6E3F0E4C6EEDEF02F0E20E4B6E3F0E9F
:1005D8004C6EBB0E106E3D0E116E000E136E090EA2
:1005E800126E54C014F0156A4BC016F04CC017F0C8
:1005F80035EC05F04D0E066E000E076E53C008F080
:100608000A0E0CEC0BF0A50E106E3E0E116E000ECD
:10061800136E0A0E126E35EC05F0000E546E27EFBD
:1006280003F0F50E106E3F0E116E4D0E5424D96E68
:10063800DA6A000EDA22DF50326E3250126E136A16
:1006480035EC05F0542A5350545CD8A02EEF03F033
:1006580030EF03F015EF03F0B80E106E3F0E116E79
:1006680035EC05F04D0E066E000E076E53C008F00F
:100678000B0E0CEC0BF0BB0E106E3E0E116E000E46
:10068800136E0B0E126E35EC05F0000E546E5FEF14
:1006980003F0F50E106E3F0E116E4D0E5424D96EF8
:1006A800DA6A000EDA22DF50326E3250126E136AA6
:1006B80035EC05F0542A5350545CD8A066EF03F08B
:1006C80068EF03F04DEF03F0B80E106E3F0E116E99
:1006D80035EC05F0D10E106E3E0E116E000E136E45
:1006E8000C0E126E35EC05F0000E546E8EEF03F012
:1006F800F50E106E3F0E116E4D0E5424D96EDA6A47
:10070800000EDA22DF50326E3250126E136A35EC68
:1007180005F0542AFF0E326EFF0E336E5350346EBE
:10072800356A32503426335035225450366E376A83
:100738003450365C3750800A386E3550800A385845
:10074800D8A0A9EF03F0ABEF03F07CEF03F00C0E99
:1007580051EC0CF0546EB60E106E3F0E116E54C074
:1007680012F0136A35EC05F0E70E106E3E0E116EAE
:10077800000E136E0D0E126E35EC05F0000E546E61
:10078800D8EF03F0F50E106E3F0E116E4D0E542487
:10079800D96EDA6A000EDA22DF50326E3250126EEB
:1007A800136A35EC05F0542AFF0E326EFF0E336ED5
:1007B8005350346E356A32503426335035225450F3
:1007C800366E376A3450365C3750800A386E35508A
:1007D800800A3858D8A0F3EF03F0F5EF03F0C6EF1E
:1007E80003F00D0E51EC0CF0546EB60E106E3F0E69
:1007F800116E54C012F0136A35EC05F0FD0E106E40
:100808003E0E116E000E136E0E0E126E35EC05F0D4
:10081800000E546E22EF04F0F50E106E3F0E116EAE
:100828004D0E5424D96EDA6A000EDA22DF50326E89
:100838003250126E136A35EC05F0542AFF0E326EF0
:10084800FF0E336E5350346E356A325034263350AF
:1008580035225450366E376A3450365C3750800A29
:10086800386E3550800A3858D8A03DEF04F03FEF75
:1008780004F010EF04F00E0E51EC0CF0546EBC0EA8
:10088800106E3F0E116E54C012F0136A35EC05F06D
:10089800130E106E3F0E116E000E136E0F0E126EB9
:1008A80035EC05F0000E546E6CEF04F0F50E106E8A
:1008B8003F0E116E4D0E5424D96EDA6A000EDA22FC
:1008C800DF50326E3250126E136A35EC05F0542A3E
:1008D800FF0E326EFF0E336E5350346E356A32504F
:1008E8003426335035225450366E376A3450365CCD
:1008F8003750800A386E3550800A3858D8A087EFAC
:1009080004F089EF04F05AEF04F00F0E51EC0CF0EC
:10091800546EBC0E106E3F0E116E54C012F0136A66
:1009280035EC05F04D0E066E000E076E53C008F04C
:10093800100E0CEC0BF03D0E106E3F0E116E000EFB
:10094800136E100E126E35EC05F0000E546EBFEFEC
:1009580004F0F50E106E3F0E116E4D0E5424D96E34
:10096800DA6A000EDA22DF50326E3250126E136AE3
:1009780035EC05F0542A5350545CD8A0C6EF04F067
:10098800C8EF04F0ADEF04F0B80E106E3F0E116E14
:1009980035EC05F0110E51EC0CF0546E040E106E8F
:1009A8003E0E116E000E136E110E126E54C014F02E
:1009B800156A35EC05F0120E51EC0CF0546E1B0E56
:1009C800106E3E0E116E000E136E120E126E54C093
:1009D80014F0156A35EC05F0130E51EC0CF0546E5A
:1009E800320E106E3E0E116E000E136E130E126E46
:1009F80054C014F0156A35EC05F0140E51EC0CF0E7
:100A0800546E490E106E3E0E116E000E136E140ECB
:100A1800126E54C014F0156A35EC05F0150E51EC41
:100A28000CF0546E600E106E3E0E116E000E136EBA
:100A3800150E126E54C014F0156A35EC05F0160E3A
:100A480051EC0CF0546E770E106E3E0E116E000EC7
:100A5800136E160E126E54C014F0156A35EC05F0BC
:100A68001200120E276E000E286EBFEF08F0250E3A
:100A78003118D8B442EF05F044EF05F049EF05F01E
:100A8800315093EC0CF0BFEF08F0000E2F6E000E03
:100A98002E6E000E2D6E59EF05F02D80104A112A8A
:100AA80059EF05F02D84104A112A10C0F6FF11C025
:100AB800F7FF0800F5501E6E1F6A1F50000AD8B4D1
:100AC80068EF05F073EF05F01E50200AD8B451EF17
:100AD80005F0100AD8B456EF05F073EF05F010C012
:100AE800F6FF11C0F7FF0800F550A9EC0BF0D8A0ED
:100AF80080EF05F082EF05F0B9EF05F0000E2F6EDC
:100B0800000E2E6E2EC004F02FC005F0000E076EEA
:100B18000A0E066EDAEC0BF004C02EF005C02FF0BA
:100B2800D00E1E6EFF0E1F6E10C0F6FF11C0F7FF2D
:100B38000800F550206E216A1E5020261F502122E1
:100B480020502E2621502F22104A112A10C0F6FFBD
:100B580011C0F7FF0800F550A9EC0BF0D8B0B7EFBB
:100B680005F0B9EF05F086EF05F010C0F6FF11C0EB
:100B7800F7FF0800F5502E0AD8A4C5EF05F0C7EF17
:100B880005F0ECEF05F0104A112A000E306EDBEF8D
:100B980005F00A0E3002F350306E10C0F6FF11C097
:100BA800F7FF0800F550D00F3026104A112A10C060
:100BB800F6FF11C0F7FF0800F550A9EC0BF0D8B00C
:100BC800E8EF05F0EAEF05F0CDEF05F09EEF06F04F
:100BD800000E306E9EEF06F02D8A2D8ED0EF06F0B7
:100BE80027C0D9FF28C0DAFFDECF25F0DDCF26F0F9
:100BF800020E2726000E282225502610D8A407EF1B
:100C080006F009EF06F00DEF06F0A10E256E3F0E77
:100C1800266E000E2A6E000E296E15EF06F0294A80
:100C28002A2A295025241E6E2A5026201F6E1EC0EF
:100C3800F6FF1FC0F7FFF86A010EF76403D008003B
:100C4800F55005D0F6CFE9FFF7CFEAFFEF500009DE
:100C5800D8A431EF06F033EF06F013EF06F030506A
:100C6800D8B439EF06F03BEF06F04EEF06F0800EF1
:100C780030BE7F0E1E6E2950305C2A50800A1E58E6
:100C8800D8B049EF06F04BEF06F04EEF06F030C053
:100C980029F02A6A2E50295C2F502A58D8B057EFCD
:100CA80006F059EF06F05FEF06F029502E5E2A5045
:100CB8002F5A68EF06F0000E2F6E000E2E6E68EFAA
:100CC80006F0200E93EC0CF02E06D8A02F062E2846
:100CD80006E12F28D8A473EF06F075EF06F065EF4C
:100CE80006F08BEF06F025C0F6FF26C0F7FFF86A7E
:100CF800010EF76403D00800F55005D0F6CFE9FFE0
:100D0800F7CFEAFFEF5093EC0CF0254A262A290684
:100D1800D8A02A06292806E12A28D8A496EF06F0A2
:100D280098EF06F077EF06F0BFEF08F0C00E2D122F
:100D3800D0EF06F010C0F6FF11C0F7FF104A112AD5
:100D48000800F5CF31F031501E6E1F6A1F50000A9F
:100D5800D8B4B1EF06F0BFEF08F01E50000AD8B4BF
:100D6800D0EF08F0580AD8B4F0EF05F03C0AD8B430
:100D7800D0EF06F00D0AD8B4D0EF06F01A0AD8B4AE
:100D8800F4EF05F0060AD8B49AEF06F00D0AD8B4C5
:100D9800F1EF05F0BFEF08F02DC01EF0C00E1E16D3
:100DA800D8A4D9EF06F0DBEF06F0F6EF06F027C07F
:100DB800D9FF28C0DAFFDECF2BF0DDCF2CF0020EF2
:100DC8002726000E28222CBEEEEF06F0ECEF06F0E8
:100DD80002EF07F0030E2D122B6C2C1ED8B02C2A14
:100DE80002EF07F027C0D9FF28C0DAFFDECF2BF0CB
:100DF800DDCF2CF0020E2726000E28223050D8A472
:100E080008EF07F00AEF07F060EF07F02B502C10FF
:100E1800D8A411EF07F013EF07F060EF07F0302ABE
:100E280060EF07F0010E316E3150020DA30EF3246E
:100E3800F66E3B0EF420F76E0900F5502B5C0900A6
:100E4800F5502C58D8B02BEF07F02DEF07F02FEF07
:100E580007F07AEF07F0312A050E3118D8A437EFDA
:100E680007F039EF07F018EF07F07AEF07F0010EF7
:100E7800316E3150020DAD0EF324F66E3B0EF420A8
:100E8800F76E0900F5502B5C0900F5502C58D8B0C6
:100E980050EF07F052EF07F054EF07F07AEF07F042
:100EA800312A040E3118D8A45CEF07F05EEF07F082
:100EB8003DEF07F07AEF07F02D50C00B1E6E1F6A4A
:100EC8001F50000AD8B46BEF07F07AEF07F01E50F6
:100ED800000AD8B416EF07F0800AD8B43BEF07F041
:100EE800400AD8B416EF07F07AEF07F03150D880EF
:100EF800D88430AE305CD8A0D884D8B486EF07F058
:100F080088EF07F08CEF07F030C031F09BEF07F067
:100F18003150D89030AE305CD8B0D880D8B097EF88
:100F280007F099EF07F09BEF07F031C030F02E5033
:100F38002F10D8B4A2EF07F0A4EF07F0B2EF07F034
:100F48002DC01EF0030E1E16D8B4ADEF07F0AFEF9C
:100F580007F0B2EF07F02E06D8A02F0631501E6E0C
:100F68001F6A2E501E5C1F50800A206E2F50800A68
:100F78002058D8B0C2EF07F0C4EF07F0CAEF07F067
:100F880031502E5E000E2F5ACEEF07F0000E2F6E56
:100F9800000E2E6E2DA4D3EF07F0D5EF07F009EF62
:100FA80008F02DC01EF0030E1E16D8B4DEEF07F0B1
:100FB800E0EF07F0E5EF07F02D0E93EC0CF0EFEF04
:100FC80007F02DA0EAEF07F0ECEF07F0EFEF07F0DE
:100FD800200E93EC0CF02E502F10D8B4F6EF07F03B
:100FE800F8EF07F0B6EF08F0300E93EC0CF02E0691
:100FF800D8A02F062E502F10D8A405EF08F007EF21
:1010080008F0F8EF07F0B6EF08F02E502F10D8B41C
:1010180010EF08F012EF08F021EF08F0200E93EC23
:101028000CF02E06D8A02F062E502F10D8A41FEF94
:1010380008F021EF08F012EF08F02DC01EF0030EA3
:101048001E16D8B42AEF08F02CEF08F031EF08F09C
:101058002D0E93EC0CF0B6EF08F02DA036EF08F04B
:1010680038EF08F03DEF08F0200E93EC0CF0B6EFE7
:1010780008F0B6EF08F03050020DA30EF324F66E18
:101088003B0EF420F76E0900F5CF06F00A00F5CF05
:1010980007F02BC004F02CC005F028EC0AF004C0BF
:1010A8000BF005C00CF0000E0E6E0A0E0D6E62EC11
:1010B8000AF00B50300F316EB3EF08F02BC004F07C
:1010C8002CC005F03050020DAD0EF324F66E3B0E29
:1010D800F420F76E0900F5CF06F00A00F5CF07F007
:1010E80028EC0AF004500F0B226E2DBA7EEF08F0A0
:1010F80080EF08F086EF08F0740E236E3F0E246E22
:101108008AEF08F0630E236E3F0E246E22502324CC
:101118001E6E000E24201F6E1EC0F6FF1FC0F7FFB4
:101128000800F5CF31F0B3EF08F02D50C00B1E6E5C
:101138001F6A1F50000AD8B4A4EF08F0B3EF08F0F4
:101148001E50000AD8B43FEF08F0800AD8B462EF06
:1011580008F0400AD8B43FEF08F0B3EF08F0315078
:1011680093EC0CF030063028D8A4BDEF08F0BFEFA0
:1011780008F099EF08F010C0F6FF11C0F7FF104A09
:10118800112A0800F5CF31F03150D8A4CEEF08F07D
:10119800D0EF08F03BEF05F012005EEC0CF0F28E99
:1011A800F28CFE0E046E170E056E98EC0CF0500EC5
:1011B800106E3F0E116E35EC05F0010E42EC0CF08E
:1011C800730E556E010E72EC09F00001956F955182
:1011D800D8A4F1EF08F0F3EF08F05CEF09F0B50ED2
:1011E800106E3B0E116E35EC05F02B0E106E3D0E99
:1011F800116E35EC05F035EC00F0B50E106E3B0EB7
:10120800116E35EC05F022EC0CF00009D8A40FEFB4
:1012180009F011EF09F007EF09F0970E0B6E000EB9
:101228000C6E11EC0CF0D40E106E3D0E116E970E74
:10123800126E000E136E35EC05F0000E0001D06F33
:10124800CD0E106E3F0E116E970ED025D96EDA6A4C
:10125800000EDA22DF50CE6FCE51126E136A35ECD3
:1012680005F00001D02B1F0ED0653DEF09F03FEFD0
:1012780009F024EF09F03B0E106E3F0E116E35ECAD
:1012880005F0340E0001CE6FF10EE82EFED7CE2FFA
:10129800FCD700D0030E0001CF6F080ECE6F770E7B
:1012A800E82EFED7CE2FFCD7CF2FFAD707EF09F0BD
:1012B800B50E106E3B0E116E35EC05F04C0E106E2F
:1012C8003D0E116E35EC05F0B50E106E3B0E116E2D
:1012D80035EC05F06EEF09F033EF00F0576E010EB4
:1012E800586E010E42EC0CF09498949A8B888B8A75
:1012F800850EE82EFED700F08B9A0B0E066E000EB8
:10130800E5EC09F0000E066E010EE5EC09F0010EA1
:10131800066E020EE5EC09F0030E066E030EE5EC10
:1013280009F0C10E066E000E076E050E086E0A0E55
:1013380031EC0BF0BC0E066E000E076E050E086E43
:10134800100E31EC0BF0000E066E040EE5EC09F001
:10135800555086EC0CF0070E066E060EE5EC09F00B
:10136800200E066E110EE5EC09F00D0EE82EFED7E4
:1013780000F0575094EC0AF00D0EE82EFED700F05E
:10138800A10E106E3D0E116E35EC05F035EC00F037
:10139800000E51EC0CF0566E56A6D5EF09F0D7EFBB
:1013A80009F0DFEF09F0ED0E106E3D0E116E35EC11
:1013B80005F0000E586E850EE82EFED700F0585046
:1013C8001200076E8B98200E0760EDEF09F0EFEF23
:1013D80009F0F9EF09F007501F0B200972EC0BF028
:1013E800065072EC0BF022EF0AF0075072EC0BF08B
:1013F800E10E0718D8B403EF0AF005EF0AF022EF60
:101408000AF0E20E0718D8B40CEF0AF00EEF0AF053
:1014180022EF0AF0E30E0718D8B415EF0AF017EF19
:101428000AF022EF0AF00728D8B41DEF0AF01FEFE0
:101438000AF022EF0AF0065072EC0BF08B880D0EC2
:10144800E82EFED700F01200000E0A6E000E096E9C
:1014580006500710D8B433EF0AF035EF0AF05DEF05
:101468000AF0010E086E3DEF0AF0D89006360736EE
:10147800082A07AE42EF0AF044EF0AF039EF0AF003
:10148800D89009360A360650045C07500558D8A08B
:1014980050EF0AF052EF0AF057EF0AF00650045ED8
:1014A8000750055A0980D89007320632082E44EFB3
:1014B8000AF009C004F00AC005F012000D500E1021
:1014C800D8B469EF0AF06BEF0AF08FEF0AF0010E5B
:1014D8000F6E73EF0AF0D8900D360E360F2A0EAE47
:1014E80078EF0AF07AEF0AF06FEF0AF00D500B5C14
:1014F8000E500C58D8A083EF0AF085EF0AF089EF58
:101508000AF00D500B5E0E500C5AD8900E320D3268
:101518000F2E7AEF0AF00BC00BF00CC00CF0120083
:101528000A6EA7EF0AF00B0E066E000EE5EC09F046
:101538008B8ABCEF0AF00A0E066E000EE5EC09F085
:101548008B9ABCEF0AF00A50086E096A0950000A23
:10155800D8B4B1EF0AF0BCEF0AF00850010AD8B4C9
:1015680097EF0AF0030AD8B49FEF0AF0BCEF0AF02D
:101578001200000E066E010E076E000E086E948EA5
:10158800948C000EB06E330EAF6EAB88AB8EB896EF
:10159800AC98AC84AC8A000E046E000E056EA2EC0A
:1015A8000CF0000E046E000E056E9DEC0CF0000EA3
:1015B800046E000E056EA7EC0CF0000E0001966F8D
:1015C80012008B98700E066E070EE5EC09F0340ECB
:1015D800086EF20EE82EFED7082EFCD78B888B9863
:1015E800E10E72EC0BF0340E086EF20EE82EFED708
:1015F800082EFCD78B888B98E20E72EC0BF0340E19
:10160800086EF20EE82EFED7082EFCD78B88120043
:10161800096E8B98095072EC0BF0000E0A6E20EFE1
:101628000BF0FF0E72EC0BF006C0D9FF07C0DAFF13
:10163800DF6E064A072A0A2A08500A5CD8A027EF54
:101648000BF029EF0BF015EF0BF006C0D9FF07C020
:10165800DAFF000EDF6E8B881200096E8B98095036
:10166800200972EC0BF0000E0A6E49EF0BF006C071
:10167800D9FF07C0DAFFDF5072EC0BF0064A072AE1
:101688000D0EE82EFED700F00A2A08500A5CD8A0F2
:1016980050EF0BF052EF0BF03BEF0BF08B88120082
:1016A800FC0EF66E180EF76E000EF86E00EEB7F030
:1016B80010EE0FF00900F5CFEEFFE550E150FAE12A
:1016C80000EE60F0570EEE6AE806FDE15B6A5C909A
:1016D8005C92000EF86E0001D1EF08F0046E04C0B1
:1016E800C9FF78EF0BF000F05B50D8A47EEF0BF049
:1016F80080EF0BF087EF0BF09EA685EF0BF087EFDE
:101708000BF077EF0BF0000E5B6E9E96C9CF05F0DD
:1017180005501200D59CEC0ED76EEC0ED66ED65046
:10172800D7CF06F0076A06C007F0066A0610596E9A
:1017380007505A6EF294F28A5C0E046E190E056E0A
:1017480098EC0CF0970ED56E1200066E000E056E22
:101758003A0E0660B2EF0BF0B4EF0BF0BEEF0BF0F1
:101768002F0E0664BAEF0BF0BCEF0BF0BEEF0BF0D8
:10177800010E056E05C004F0043012000001C651C8
:10178800C711D8B4CAEF0BF0CCEF0BF0D9EF0BF0C0
:1017980002D8D9EF0BF00500FA6EC651FD6EC7519D
:1017A800FE6EF850FF6EFA50120012000450060246
:1017B800F3CF08F0F4CF09F004500702F3500926DC
:1017C80005500602F350092608C004F009C005F0C8
:1017D8001200C69A949E9388939C94988B88C79E6F
:1017E800C79CC698C650F00B0109C66EA0869D8698
:1017F8009496C69A120089B204EF0CF007EF0CF029
:10180800010E08EF0CF0000EFF0A016E0146895028
:101818000118FD0B0118896E12000BC006F00CC0F0
:1018280007F0200E086E610E0CEC0BF0700E066EC1
:10183800070EE5EC09F0E5EC0AF01200070E51EC92
:101848000CF0086E08AC2BEF0CF02DEF0CF030EF1D
:101858000CF0000E31EF0CF0010E1200000E896E34
:10186800000E8A6E000E8B6E92683F0E936E1F0EEE
:10187800946E000E7F6E000E7E6E1200C6BA47EFA1
:101888000CF049EF0CF04FEF0CF09E94A196C68A2D
:10189800010E50EF0CF0000E1200066E8B980650E9
:1018A8001F0B72EC0BF0FF0E72EC0BF0076E8B88BF
:1018B800075012008DEC0CF032EC0CF08EEC0BF0B3
:1018C800ACEC0CF0BDEC0AF0EDEC0BF01200046E81
:1018D8009EA871EF0CF073EF0CF06CEF0CF004C0E5
:1018E800ADFF1200F2945A50D76E59C0D6FFC2EC21
:1018F8000BF01200E2E2E2E2E2E1E1E1E1E1E1E142
:03190800E1E1E139
:10190C00086E08C006F0050EE5EC09F01200D39E37
:10191C00700ED312030ED3121200056E05506BEC31
:10192C000CF0120004C0C6F005C0C7F0120004C0D1
:10193C00CAF005C0CBF0120004C0CCF005C0CDF04D
:10194C00120004C0C8F005C0C9F01200D09E1200ED
:02195C00120077
:103B8E000000000000E4160000000000000000002D
:103B9E00000000000001000A006400E80310270185
:103BAE0000100000010010232323232323232323AB
:103BBE0023232323232323232323232323232323C7
:103BCE0023232323232323232323232323232323B7
:103BDE0023232323232323232323232323232323A7
:103BEE002323232323230D0A005B307825303258FC
:103BFE005D20307825303258204152443D255820E2
:103C0E004152433D25582028726574722E64656CAE
:103C1E0061793D257575732C20636F756E743D2526
:103C2E0075290D0A005B3078253032585D203078CA
:103C3E002530325820454E5F5258414444523D255E
:103C4E00303662202861646472657373207769640C
:103C5E007468203D202575290D0A005B30782530CB
:103C6E0032585D20307825303258204D41534B3A32
:103C7E0025303358204352433A253032582050577E
:103C8E00523A2573204D4F44453A5025730D0A0084
:103C9E005B3078253032585D203078253032582010
:103CAE00434F4E545F574156453A257320504C4C66
:103CBE005F4C4F434B3A25732044617461526174DB
:103CCE00653D005B3078253032585D2030782530E8
:103CDE003258204952513A253033582052585F50AD
:103CEE004950453A25752054585F46554C4C3A2557
:103CFE00730D0A005B3078253032585D2030782500
:103D0E0030325820504C4F535F434E543D25752052
:103D1E004152435F434E543D25750D0A004E5246A7
:103D2E0032344C303120496E697469616C697A6540
:103D3E00207375636365737366756C0D0A00466157
:103D4E00696C656420496E697469616C697A652075
:103D5E004E524632344C30310D0A005B30782530ED
:103D6E0032585D203078253032582028252E337574
:103D7E0047487A290D0A005B3078253032585D208D
:103D8E0030782530325820454E5F525841444452C7
:103D9E003A20006E726632345F7365745F72665FCE
:103DAE006D6F6465286D6F6465290D0A005B307850
:103DBE00253032585D20307825303258205250440C
:103DCE003D25730D0A004E5246323420526563650E
:103DDE0069766520446174613A2025730D0A00727C
:103DEE00664361726450726573656E74203D205433
:103DFE005255450D0A005B3078253032585D205201
:103E0E00585F50575F50303D25750D0A005B307876
:103E1E00253032585D2052585F50575F50313D2546
:103E2E00750D0A005B3078253032585D2052585F90
:103E3E0050575F50323D25750D0A005B30782530A6
:103E4E0032585D2052585F50575F50333D25750DE7
:103E5E000A005B3078253032585D2052585F50573B
:103E6E005F50343D25750D0A005B30782530325891
:103E7E005D2052585F50575F50353D25750D0A0035
:103E8E005B3078253032585D20307825303258201E
:103E9E00454E41413A20005B3078253032585D2046
:103EAE0052585F414444525F50302022005B3078BC
:103EBE00253032585D2052585F414444525F503194
:103ECE002022005B3078253032585D2052585F41F9
:103EDE004444525F50322022005B307825303258F5
:103EEE005D2052585F414444525F50332022005BA4
:103EFE003078253032585D2052585F414444525F2D
:103F0E0050342022005B3078253032585D205258D4
:103F1E005F414444525F5035202200535049315F77
:103F2E005265616442797465202564200D0A005B38
:103F3E003078253032585D2054585F414444522029
:103F4E00220054696D65723020696E697420446F69
:103F5E006E650D0A0030313233343536373839411B
:103F6E0042434445460030313233343536373839E2
:103F7E00616263646566005B5025317525735D254E
:103F8E0073003235306B627073200052465F5057AB
:103F9E00523D00286E756C6C2900314D6270732095
:103FAE0000324D62707320002568220D0A002578BC
:103FBE00220D0A0064426D0D0A003F3F3F2000258E
:103FCE00642C20002D3132002D3138003F3F3F0050
:103FDE004F464600594553002D36004F4E004E4F6A
:103FEE00005258005458002578002B002D00300048
:013FFE0000C2
:020000040020DA
:08000000FFFFFFFFFFFFFFFF00
:020000040030CA
:0E000000FF081F1EFF0080FF03C003E0034047
:00000001FF
